:020000040800F2
:10000000C0080020D50000088D300008232C00080F
:1000100000000000000000000000000000000000E0
:10002000000000000000000000000000DF310008B8
:100030000000000000000000DD310008F932000877
:10004000E7000008E7000008E7000008E7000008F4
:10005000E7000008E7000008E7000008E7000008E4
:10006000000000008908000899080008E70000085F
:10007000E700000871330008E7000008E700000807
:10008000E7000008E7000008E7000008E7000008B4
:1000900000000000E7000008E7000008E700000893
:1000A000E7000008E7000008E70000080D3E000830
:1000B000E7000008E7000008000000000000000062
:1000C0000348854600F088FA00480047213F0008B1
:1000D000C00800200448804704480047FEE7FEE7C8
:1000E000FEE7FEE7FEE7FEE76F330008C100000809
:1000F00030B50B46014600202022012409E00D46C0
:10010000D5409D4205D31D469540491B2546954047
:1001100040191546521E002DF1DC30BD70B500248B
:100120002546002801DA01244042002901DA012590
:100130004942FFF7DDFFAC4200D04042002C00D026
:10014000494270BDF0B51FB40646002082B0054696
:100150004024019100901BE0019922460F46304651
:1001600000F088F9049A059B801A994110D3104633
:100170001946224600F06EF9361A8F410197224641
:1001800001200021009F00F065F938184D410090D2
:100190002046641E0028DFDC019B00982946324679
:1001A00007B0F0BDD2B201E00270401C491EFBD284
:1001B00070470022F6E710B513460A460446194672
:1001C000FFF7F0FF204610BDF8B502464A40D40FB5
:1001D00042004B0052085B089A4202D2024608468F
:1001E00011464A0023D0C30D4A00DDB2120EAD1AEB
:1001F000202D35DA49020126490AF6058A19002C14
:1002000000D0524220214F1B1146B9402A411018FC
:10021000C20D9A4221D0002C17D0012D08DCDA053E
:10022000801AD20F8019D207DBB200F03CF9F8BD7A
:10023000DA05801A012340001B06C01880185A42B4
:100240008018CA0F1043490007E04908C20711434C
:10025000DA05801A80194008801800F01CF9F8BDF2
:1002600061000122511A001BF7E70122D207514019
:10027000AAE70122D2075040A6E7024670B54A40DD
:10028000D30FDB0740002DD04A002AD0010E140EF8
:10029000000212020919400A520A8418E5010446B4
:1002A0005443000A120A2E045043A4194219200C88
:1002B000C543AA18120C0125AD03521C5219120491
:1002C0007F39240400D0521C104301D44000491E41
:1002D000C2B20C06C0092018401C4008802A02D077
:1002E00003E0002070BD40084000002900DA002033
:1002F000184370BD70B502464A40D50F40004A0011
:10030000ED0740085208002814D0002A12D0C40D6E
:10031000D30D41020120C0055202490A520AE41AD3
:10032000091812187D34914201D3641C00E0490081
:10033000002C01DA002070BD0023914201D3891AFC
:100340000343400849000028F7D100290AD0914210
:1003500002D10121C90705E0914201D2012101E04A
:100360000121C943E005C018401900F094F870BDA0
:10037000420005D04200120E52428A4201DB0020A8
:100380007047C90508187047C217C10F504010B513
:100390004018CA079623002100F085F810BD10B55B
:1003A00000229623114600F07EF810BD0EB5C2174C
:1003B000C10F5040CA0740180021054B029301921B
:1003C00000910A460B4600F0B4F803B000BD0000EF
:1003D00033040000C20F410040020123400ADB0544
:1003E000D207090EC0187F2901DA0020704796292C
:1003F00003DC9623591AC84001E096398840002A48
:10040000F4D040427047CB0FDB07490010B54908D4
:1004100002460A4307D00A0D07240903E401090B29
:10042000121B002A01DC002010BDC900440F0C4340
:10043000C100E018D205801800F02DF810BD0000B2
:100440000122D207002800DB101A002900DB511A14
:100450008842704710B5202A04DB0146203A9140BB
:10046000002010BD914020239C1A0346E34019430D
:10047000904010BD10B5202A04DB0846203AD04039
:10048000002110BD0B46D340D0402024A21A914039
:100490000843194610BD002904DA401C490001D167
:1004A00040084000704770B40024050C05D11024AA
:1004B000000402D1002921D01124050E01D100022F
:1004C0000834050F01D10001241D850F01D18000E2
:1004D000A41C002801DB4000641C002908D0202552
:1004E0002E1B0D46F540A14000D0012129430843B1
:1004F00001061B1B000ADB1D02D5002070BC7047E3
:10050000DB05181880180029F8DA401C4900F5D1DD
:1005100070BC40084000704710B5002B08DA00247A
:10052000401C614192185B411A4301D140084000D0
:1005300010BDF0B51FB482B005460C0003D00846CC
:1005400003F06CFC02E003F069FC203002460090EE
:1005500021462846FFF77EFF049B059A04460F4676
:1005600018431143084314D0184610431BD0009879
:1005700040210A1A18460599FFF77CFF05460E46EA
:10058000009A05990498FFF765FF084305D00120FC
:1005900004E02046394607B0F0BD0020C1170543EE
:1005A0000E432C43374300990E986305401A790592
:1005B000E40A00220C43FD0A0A3002D5002001465D
:1005C000E9E70105101969410C9C0D9D001969416D
:1005D000FFF7A2FFDFE70000064C0125064E05E00D
:1005E000E36807CC2B430C3C98471034B442F7D354
:1005F000FFF76AFD544800087448000870B50446C7
:10060000006802F017FB002824D020688168890761
:10061000C90F04D18168104A11401031816001F086
:1006200057F8054612E001F053F8401B02280DD997
:1006300020688068400709D5A06D10210843A06597
:10064000E06D01210843E065084670BD20688068C0
:100650004007E8D4002070BDE8FFFF7F10B5846A32
:10066000A16D502211420DD1A06D01214902084314
:10067000A065206802F0E2FA00281BD0A07E0028C6
:1006800007D017E0A16DC90624D5204600F002FC72
:1006900010BD2068016809070CD502F0CBFA0146AD
:1006A000012000290AD0A16D20221143A165E16D2E
:1006B0000143E165204600F0EBFB10BD21684A686C
:1006C0000C239A434A60A16DFF22013291430143FA
:1006D000A165EFE7216D496B884710BD10B5806AB1
:1006E000816D402211438165C16D04221143C165B2
:1006F00000F0D0FB10BD10B5806A00F0CAFB10BD41
:10070000F8B50446006881688907CD0F02F08AFABF
:1007100000282AD0002D28D12068816805221140A8
:1007200010250126012914D18168114A1140891C24
:10073000816021680320086000F0CAFF074610E0CE
:1007400000F0C6FFC01B02280BD920688068C007D4
:1007500007D0A06D2843A065E06D3043E06501201F
:10076000F8BD20688068C007EAD10020F8BD00000D
:10077000E8FFFF7FF8B5044600200090206802F0F3
:1007800051FA002845D120688168234A102611407B
:10079000002930D18168D5432940491C81601F4818
:1007A000006807218905084000020AD51D481C4938
:1007B0000068FFF79DFC401C00E0401E00900028F0
:1007C000FBD1607E012824D000F082FF07461BE0A9
:1007D00002F028FA002804D1206881682940491CC9
:1007E000816000F075FFC01B02280DD920680068E9
:1007F000C043C00708D0A06D3043A065E06D012163
:100800000843E0650846F8BD20680168C943C90788
:10081000DED10020F8BD000017000080082701404D
:10082000400D0300380000207FB5134A134C07CA5F
:1008300001AE009407C6124D01AA2B4600211148B3
:1008400002F0B0FC0F482B4601AA0021483000946A
:1008500002F0A8FC0B482B4601AA0021903000941E
:1008600002F0A0FC07482B4601AA0021D8300094D2
:1008700002F098FC7FBD00004848000800F07F456A
:10088000006E94463C03002010B5024800F06CFD59
:1008900010BD00009002002010B5024800F064FD79
:1008A00010BD0000BC00002010B50446006C0949D2
:1008B0008008800040186064207814210838FFF711
:1008C00017FC04498031A164C106C90E012088408B
:1008D000E06410BD000802400179084B8906890ECA
:1008E0008A00D2180265054A4432491E42658A07C9
:1008F000920F01219140816570470000FC08024081
:10090000F0B5846CC56C6560046D002C02D0446D3C
:10091000856D65600B4C6568066C1C273E400127A1
:10092000B7403D436560046863608368102B0368CB
:1009300003D099600068C260F0BD9A600068C16031
:10094000F0BD00000000024010B524220549064811
:1009500001F0C8FE05480068016804229143016067
:1009600010BD00005C040020FC010020900200206B
:10097000FEB560490878C8287ED188781628FBD152
:100980000A79CB781002184340050C46400D2434F8
:10099000208008791F27C20848797F0143011A4344
:1009A0005205520D62808209887980000243C8791D
:1009B00083021A435205520DA2800A7A4008D301DD
:1009C00018434005400DE08013094A7A15012B4376
:1009D0005B055B0D23818B7AD2095B001A43CB7ACE
:1009E0005D022A435205520D62810A7B9B089501E4
:1009F0002B435B055B0DA381497B5209C9000A4368
:100A0000E281FF22913251420192009171223B46D4
:100A10001201AE2103F067FAA0840F210520019195
:100A2000354D0090A0883B462A46AE2103F05BFA84
:100A30006084642148420191009020883B462A4608
:100A4000AE2103F050FA2084C1134840401A1E2101
:100A50000026019180B2322364220096314603F0D1
:100A600042FA25462035A872502148420191009053
:100A700060883B46712200E035E01201AE2103F0B0
:100A800032FAE084001D092800D2E6841A48218940
:100A90001A4A6F38914203D3814201D9012100E003
:100AA0000021E97262891649824201D9022205E0D9
:100AB0005218C72A01D2012200E000222A73A2891B
:100AC000824201D9022005E05018C72801D2012036
:100AD00000E000206873E0890A49884201D30120C0
:100AE00000E00020A87324210248FFF762FBFFF713
:100AF0002BFFFEBD5C040020130700001A04000059
:100B00007BFCFFFFDC05000072B6FEE7F0B5044693
:100B1000002089B02546064640350290287D0128F0
:100B20000ED001272F752046FFF7EAFD05902068BB
:100B300002F07CF80028A06D05D01021084388E061
:100B4000022009B0F0BDFF21013188430221084392
:100B5000A0652068C168414A11400491C168D24330
:100B60001140C16000212068826817239A43DB0787
:100B70001A4382603A4A20680DE0029B5B1C029394
:100B8000934208D3A06D0221884310210843A06539
:100B9000002028754DE08368DB0FEED18030406B7C
:100BA000491C4006400E86190829DCD33046FFF761
:100BB0009FFA0146206882682A4B1A40521C8260C4
:100BC00020680269920F920713D1274A12680F26F4
:100BD000B60432400726B604B2420AD3920C3E460F
:100BE000D21E96407208019600E0521E0192002A21
:100BF000FBD18030426BD209D2010A4342632068A4
:100C000081681940891C816000F062FD064612E08F
:100C100000F05EFD801B02280DD9206802F006F866
:100C2000002808D0A06D10210843A065E06D38436E
:100C3000E065012085E7206801F0F8FF0028E7D192
:100C40002068C168049A1143C160A06D80088000CB
:100C5000401CA06500202875059872E703800000FD
:100C600000F20200E8FFFF7F08270140F8B50027E7
:100C70000646044640360097307D0D4601280FD0C9
:100C800001203075206801F0D5FF00280AD0A06D42
:100C900020210843A0650127002030753846F8BDA3
:100CA0000220F8BD686802287ED001222169D2079F
:100CB000914202D0121D914206D120682968826AB1
:100CC0004903490B0A436EE0C206D20E0F20216E83
:100CD000904081432868430302D0C3074BD102E010
:100CE0004000C00E48E0830701D5012044E04307DF
:100CF00001D5022040E0030701D503203CE0C306F4
:100D000001D5042038E0830601D5052034E04306F0
:100D100001D5062030E0030601D507202CE0C305ED
:100D200001D5082028E0830501D5092024E04305EA
:100D300001D50A2020E0030501D50B201CE0C304E7
:100D400001D50C2018E0830401D50D2014E04304E4
:100D500001D50E2010E0030401D50F200CE0C303E1
:100D600001D5102008E0830301D5112004E04003E1
:100D700001D5122000E000209040014321666968FF
:100D8000E2698808401C904210D820682B68826A6B
:100D90009C46C906C90E0F238B409A4363469B00AD
:100DA0001B0F8B401A4300E03BE082622168AB6876
:100DB00028684A6900028243184040014009024302
:100DC0004A612868002800DB66E72B4A1168072380
:100DD0009B051940294B984214D10B0212D4C00232
:100DE0000143104601F032FF264825490068FFF70D
:100DF0007FF90C21401C484300E0401E0090002871
:100E0000FBD149E7204B984203D1CB0101D48002AA
:100E100005E01E4B9842D7D14802D5D45802014371
:100E200025E001212069C907884202D0091D8842B6
:100E300006D120682968826A4903490B8A43826285
:100E400028680028C0DA0C4A116807239B0519405E
:100E50000A4B984201D1C00208E00B4B984201D1E5
:100E6000800203E0094B9842AED140028143104614
:100E700001F0ECFE10E7000008270140001000B070
:100E8000400D030038000020004000B8002000B4EE
:100E90007047704770470000FEB500270446019771
:100EA0003E4602970097002805D02546A06D2035C4
:100EB000002802D007E00120FEBD204600F0FCF82B
:100EC000E6655420065520688168C900C90F12D113
:100ED0008168724A114001221207114381607148F2
:100EE0006F490068FFF704F94000801C00E0401ED5
:100EF00000900028FBD120688168C900C90F08D183
:100F0000A16D10221143A165E16D01221143E1653C
:100F1000174601F08FFEA16DC90601D4002804D048
:100F2000A06D10210843A065B4E0A06DFF21013140
:100F3000884302210843A065206801F073FE002861
:100F40006DD1217EA06889030843617ECA03A17E1A
:100F50004B031A431043226B002A01D001221203D3
:100F60001043E26810432269002A02DA5200520854
:100F700001E00122520510432A7B52001043019ADE
:100F800010432A78012A09D1002922D0A16D2022FC
:100F90001143A165E16D01221143E165616A0029F8
:100FA00006D0FF23C1331940A26A0143104608430B
:100FB0002168CA683C4B1A400243CA606168029AC1
:100FC000890F8907E06C0A4310432A7F012A04D065
:100FD0000CE0012109040843E0E7636C226C491C22
:100FE0001A43A36C0B4311461943084321680A694D
:100FF0002E4B1A4002430A61032160688907884228
:101000000DD0590788420AD04900884207D0284AA3
:1010100091680F239B04994318400143916000217C
:10102000626B206801F019FE2249A26B206801F072
:1010300014FE0F202169C04300291CD00122520553
:1010400091420AD121688A6A227F9200121FD20639
:10105000D20E9040226E1043886220684069616B16
:101060004007400F88420BD1E665A06D80088000E4
:10107000401CA0650FE021688A6A02438A62ECE79F
:10108000A06D0221884310210843A065E06D012175
:101090000843E06501273846FEBD0000E8FFFF7FFA
:1010A000400D0300380000200102DEFF02FCFF1F9C
:1010B0000027014004FFFF0770B586B006461421E3
:1010C0006846FFF776F81D493068884234D11C48DD
:1010D0000268012109050A43026000680840059082
:1010E00017484038416B012211434163406B002592
:1010F00010400590C3200090032001900520694610
:101100000295000700F036FA0F4C0E482060A560EB
:101110000520E56060608020206140006061E5613D
:1011200080002562A061204600F07AF9002801D0F5
:10113000FFF7EAFC3465A66206B070BD00240140EA
:10114000401002401C000240BC000020F7B50446DD
:10115000006801F06FFD002845D125464035287D07
:10116000012840D001272F752068C1681F4EC9078C
:101170000CD101F057FD002804D02068816831406F
:10118000891C81602068C1683943C1602046FFF72F
:10119000F1FA002826D1A06D15490840FF21013140
:1011A0000843A0650020E065226D1249D162226DDE
:1011B00011491163226D1149516322681C2111608C
:1011C0002875206841681022114341602168206D14
:1011D0004031029B019A00F075F921688A6832401B
:1011E000121D8A60FEBD0220FEBD0000E8FFFF7FE9
:1011F000FEF1FFFF5D060008F7060008DD060008A7
:10120000F8B5064604464036307D012807D0012750
:1012100037752046FFF7F2F9050002D028E00220DA
:10122000F8BD206D2521095C022907D100F024F8C2
:10123000050003D0A06D40210843A06520684168E7
:10124000102291434160002D204602D0FFF758FA4A
:1012500009E0FFF755FA050005D1A06DFF21013126
:1012600088433843A0652068C16849084900C160C7
:10127000002030752846F8BDF0B5002808D001469A
:1012800020314A79022A05D00422C2630020087165
:101290000120F0BD026813680E24A3431360426C62
:1012A0001468FF2301339C431460026814686408C7
:1012B000640014600C4A5568066C1C242640012406
:1012C0002746B7403D435560826CC56C5560026D42
:1012D000002A05D015689D431560826D406D4260FF
:1012E0004C7100200871F0BD00000240F8B50024E8
:1012F000024620325179022903D00421C16301241E
:101300002DE001680B680E25AB430B6001680B688C
:101310005B085B000B60416C0B68FF250135AB433C
:101320000B6010494D68066C1C231E4001231F46AC
:10133000B7403D434D60816CC56C4D60016D002927
:1013400006D00E681D02AE430E60416D856D4D6086
:10135000537100211171816B002900D0884720460C
:10136000F8BD000000000240F0B42C490C6802688F
:101370001368056C1C273D400426AE40264211D060
:101380005E070FD513689B0603D4146804239C439F
:1013900014604B68046C04223C40A24013434B6031
:1013A000016B1CE00227AF40064627402036002F85
:1013B00019D09F0717D513689B0605D413680A2414
:1013C000A3431360012272714B68046C1C22144009
:1013D0000222A24013434B6000213171C16A0029EF
:1013E0001AD0F0BC08470827AF40274214D01B078B
:1013F00012D513680E24A34313604B68046C1C229F
:10140000144001221546A5402B434B60C263727104
:1014100000213171416BE2E7F0BC704700000240EF
:1014200070B504003FD02548256814212818FEF720
:101430005FFE8000206402202646203670712868F6
:101440001F4908402860E168A06862690843216973
:1014500011430843A1690843E1690843216A08432D
:1014600021680A68104308602046FFF71DFA012131
:10147000A06889030025884200D165602079616CED
:101480008006800E0860A06CE16C41606068401EC0
:1014900003280AD82046FFF71FFA206D0560606D0B
:1014A000A16D416004E0012070BD25656565A565FD
:1014B000E563012070713571002070BDF8FFFDBF3C
:1014C0000F80FFFFF8B504468C46203001790025D7
:1014D00001290BD00126067141790027012907D087
:1014E0008021E163077101252846F8BD0220F8BD7F
:1014F00002214171E76320680168490849000160E1
:1015000061462046FFF7FCF9206B0028206801683F
:1015100001D00E2205E00422914301602068016899
:101520000A2211430160606C0168CA03074902D5B1
:1015300002680A430260206D002802D002680A4354
:1015400002602068016831430160CDE700010000BE
:1015500070B5044600F0BCF80546601C02D0044893
:101560000078241800F0B4F8401BA042FAD370BDF4
:101570002C000020F0B5002303249AE02A46012520
:101580009D402A407ED00E79B607B60F012E01D0BD
:10159000022E16D186682746B4465E00B646B7408E
:1015A0006646BE43B446CF687646B7406646374384
:1015B00087604668AE430D79ED06ED0F9D403543DB
:1015C00045600D79ED43AD0708D0C5685F0026463C
:1015D000BE40B5438E68BE402E43C6600D79AD0750
:1015E000AD0F022D0ED1DD08AD002D18AC462D6AD1
:1015F0005E07F60E0F27B740BD430F69B7402F4374
:1016000065462F6205685F002646BE40B5430E79E9
:10161000B607B60FBE402E4306604D68AD03AD0F52
:1016200046D09E08264DB6007519AC462D6E9E0715
:10163000F60E0F27B740BD4305273F07B84201D13B
:1016400000270FE01F4FB84201D101270AE01E4FCB
:10165000B84201D1022705E01C4FB84201D103274F
:1016600000E00527B7402F43154D664637662D68C5
:101670004E689543F60200D51543114F3D607D68D5
:10168000954300E014E04E68B60200D515437D6036
:101690000B4D80356E684F689643BF0300D51643E7
:1016A0006E602E684F689643FF0300D516432E6088
:1016B0005B1C0A681546DA4000D05FE7F0BD000009
:1016C000001802400004005000080050000C0050B8
:1016D00001488068704700002C00002002488168A3
:1016E00002788918816070472C00002010B50848E6
:1016F00000240168821511430160032000F00AF8FC
:10170000002801D0012401E000F028F8204610BD97
:101710000020024070B50F4E0024317805460029A4
:1017200015D07D20C000FEF7E3FC01460A480068A2
:10173000FEF7DEFC00F030FC002808D1042D06D2B4
:1017400000222946401E00F02BF8756000E00124BD
:10175000204670BD2C0000203800002008B5094844
:1017600001680122114301600068104000900548A3
:101770004038C26B01040A43C263C06B084000904A
:1017800008BD000040100240002805DBC106C90E5C
:1017900001208840014908607047000000E100E036
:1017A00010B502F053FB10BD10B50F4C2168032299
:1017B0005202914301432160C11FFF39FA390ED112
:1017C0000A480621006848430949FEF791FC401C7D
:1017D00002E0002805D0401E61694905F9D40020C7
:1017E00010BD032010BD0000007000403800002034
:1017F00040420F00F8B5044600680026664D80039D
:1018000058D5654800274038C06BC00009D46248ED
:101810004038C26B01040A43C263C06B0840012711
:1018200000905E480168821511430160FFF750FF88
:10183000009005E0FFF74CFF0099401A022825D8D8
:1018400056480068C005F5D5E8690321090208403B
:101850000FD0616A81420CD0E86903210902EA696C
:101860008843012109040A43EA61EA698A43EA617B
:10187000E861C0070FD0FFF72BFF009008E0FFF7EB
:1018800027FF0099411A4648814201D9032609E001
:10189000E8698007F3D5E869032109028843616A92
:1018A0000843E861002F05D03B484038C26B010473
:1018B0008A43C2632078C00705D0686961688008E0
:1018C0008000084368612078C00606D56869032156
:1018D00089028843A168084368612088800506D58D
:1018E0006869032189048843616908436861208825
:1018F000400506D56869032109058843A1690843A5
:1019000068612078800606D5686903210903884349
:10191000E168084368612088400411D56869E1697D
:1019200080008008084368610121E06989078842D6
:1019300006D119484038C168012212041143C16020
:101940002068800210D5686901218905226A8843D0
:1019500010436861206A884206D10F484038C16848
:10196000012212061143C1602088000512D5686962
:1019700003218903884321690843686101212069A3
:101980008903884206D104484038C1680122120404
:101990001143C1603046F8BD401002400070004065
:1019A00088130000F8B50F46060043D04D4D286857
:1019B0004007400FB84213D22868C008C00038431F
:1019C0002860FFF785FE044605E0FFF781FE011B56
:1019D0004548814261D828684007400FB842F4D199
:1019E0003068424C81070DD5400704D5A068072117
:1019F00009030843A060A0680F2109028843B16869
:101A00000843A0603078C00732D0706801280AD03F
:101A100002280BD000280FD03449403103280ED0C3
:101A2000C969890704E02168890301E02168890107
:101A3000002906DB0120F8BD21684905F8E7096A9D
:101A4000EFE7A168C908C9000143A160FFF740FEA4
:101A5000009006E0FFF73CFE0099411A22488142BF
:101A60001BD8A068382108407168C9008842F1D1AC
:101A700028684007400FB84217D91A480168C908BA
:101A8000C90039430160FFF723FE054607E0FFF771
:101A90001FFE411B1448814201D90320F8BD1148A3
:101AA00000684007400FB842F1D13078400706D5B2
:101AB000A068072109038843F1680843A06000F08B
:101AC00031F8A1683C2289091140094A515CC906D4
:101AD000C90EC8400749086007480068FFF71AFEAA
:101AE000F8BD0000002002408813000000100240F2
:101AF000E847000838000020300000200648074969
:101B000000688968064A4904490F8900515CC90682
:101B1000C90EC84070470000380000200010024085
:101B20002848000810B5204CA068204A8006400FC5
:101B300016D0A0688006410F501001290FD0A1686F
:101B40008906490F022912D0A0688006400F042898
:101B500023D0A0688006400F032821D0002010BDAC
:101B6000206801218004400F8140104612E0E168A6
:101B70008B07E1689B0F4906490F491C032B00D0D6
:101B80001046FEF7B5FAE1684904490E4843E1689A
:101B9000490F491CFEF7ACFA10BD0120C00310BD6F
:101BA0007D20000210BD0000001002400024F4005F
:101BB000F8B504007ED020783827C007ED4D002806
:101BC00046D0A868E96838408907890F102802D0F4
:101BD00008280BD001E0032908D001206268000426
:101BE00082420AD129680143296015E028688003F0
:101BF0002ED560680028DDD02AE0052301211B04D2
:101C000089049A422A6802D10A432A60EAE7824399
:101C10002A60286888432860606800280CD0FFF795
:101C200057FD064604E0FFF753FD801B642873D878
:101C300028688003F7D50BE0FFF74AFD064604E06D
:101C4000FFF746FD801B6428F1D828688003F7D48D
:101C50002078800769D5A868E96838408A07072195
:101C6000920FC902102802D0002813D001E0022AE6
:101C700010D0E068002846D02868884321690843CE
:101C800028602868FF21013108432860FFF720FD04
:101C900006462CE02A68520502D5E268002A89D05F
:101CA0006A687F231B029A4363691B021A436A60B6
:101CB000002800E08DE00ED12868884321690843A0
:101CC0002860286801218004400F8140AA48FEF75F
:101CD0000FFAAA490860AA480068FFF71BFD002810
:101CE00077D122E0FFF7F4FC801B02289FD82868F8
:101CF0004005F7D568687F210902884361690902B8
:101D00000843686011E02968FF20013081432960A1
:101D1000FFF7DEFC064605E098E0FFF7D9FC801BE4
:101D2000022884D828684005F7D42078954E00070B
:101D30002ED5A8688006400F03280AD0A069002885
:101D4000306A16D0012108433062FFF7C1FC074614
:101D50000BE0306A80071BD5A06900289FD017E0F0
:101D6000FFF7B6FCC01B022870D8306A8007F7D591
:101D70000EE0400840003062FFF7AAFC074604E08E
:101D8000FFF7A6FCC01B022860D8306A8007F7D492
:101D9000207840076CD5A86800278006400F0428EB
:101DA00018D0E86BC00008D4E96B0120000701439C
:101DB000E963E96B01400127009173480168C90597
:101DC00019D40168821511430160FFF781FC00906E
:101DD0000DE083E0F06980074AD5A06800287DD037
:101DE00046E0FFF775FC0099401A02282ED8664895
:101DF0000068C005F5D5A168012910D00420052987
:101E0000F16911D049084900F161F1698143F1613B
:101E1000A068002816D0FFF75BFC00900EE0F06988
:101E200001210843F061F3E70143F161F7E7FFF7B0
:101E30004FFC0099411A5548814267D8F0698007E4
:101E4000F5D50EE0FFF744FC009007E05EE0FFF7F9
:101E50003FFC0099411A4D48814257D8F0698007EC
:101E6000F5D4002F04D0E86B012109078843E8630B
:101E7000E06900287BD0A9688906490F02294FD064
:101E8000012636060228286805D0B0432860FFF7EF
:101E90001FFC04463CE0B0432860FFF719FC0746EE
:101EA00004E0FFF715FCC01B02282FD8286880012A
:101EB000F7D4616A206AA26A0843E16A12021143F8
:101EC0000843216B0843616B0843E968304A1140BD
:101ED0000843E86028683043286000E045E0E8688F
:101EE000012109070843E860FFF7F2FB044604E01C
:101EF000FFF7EEFB001B022808D828688001F7D501
:101F000035E0FFF7E5FB001B022801D90320F8BDEF
:101F100028688001F5D4E8681E490840E86026E09A
:101F20000128F4D0E868226A8107890F91421CD108
:101F30007021626A0140914217D17F21A26A090291
:101F400001401202914210D11F214904E26A01406E
:101F500091420AD107214906226B0140914204D1E6
:101F6000400F616B4007884201D00120F8BD00207E
:101F7000F8BD0000001002400024F40038000020EA
:101F80003000002040100240007000408813000024
:101F90008C80C111FCFFFEEE094910B5401E88423D
:101FA00001D9012010BD074C60610321081F01F019
:101FB0004DFF0020A06107202061002010BD00001F
:101FC000FFFFFF0000E000E070477047704700002F
:101FD000F0B5034620331A7F012A28D001221A7750
:101FE00002225A7704686268A568124FBC4205D184
:101FF00016460F22120596434A6832437026B243B2
:102000000E68164366600068B84206D00122920747
:10201000904202D0084A904204D1802289689543B8
:10202000294381600120587700201877F0BD0220F5
:10203000F0BD0000002C01400004004070B5040019
:1020400005D025462035687F002802D006E0012013
:1020500070BD00202877204600F016F8022068772F
:10206000211D206801F08CF9012240342272AA77E8
:10207000EA7722706270A270E27022716271A271BE
:10208000E2716A77002070BD10B58CB0044628213B
:102090006846FEF78EF81149206888421BD101205E
:1020A00040050090002008906846FFF7A3FB002839
:1020B00001D0FEF729FD0A480268C1140A430260F4
:1020C0000068002208400A9011460D20FFF768FBC7
:1020D0000D20FFF759FB0CB010BD0000002C014093
:1020E00040100240014620314A7F012A01D00120E0
:1020F000704702224A7700680B490122884205D0C6
:102100009107884202D00949884207D18168084B6B
:102110001940062905D0DB1F994202D001681143FE
:102120000160002070470000002C014000040040C6
:1021300007000100F8B5054604462035287F002633
:10214000012817D001272F7702206877226890682E
:102150002F4B1840FF231B029843906008685028BB
:1021600038D00EDC20284FD006DC00284CD01028B8
:102170001ED149E00220F8BD302845D0402817D1B3
:102180003AE060282ED0702818D001221203801A5D
:102190000FD090420CD1CB684A688968206801F062
:1021A00046F920688168012292031143816000E0B2
:1021B00001266F77002028773046F8BDCB684A6843
:1021C0008968206801F033F9216888687722104314
:1021D0008860EEE7CA684968206801F08BFA5021F0
:1021E000206806E0CA684968206801F094FA602116
:1021F000206801F027F9DCE7CA684968206801F027
:1022000079FA40212068F4E7226801461046F0E799
:1022100088FFCEFF70470000F8B504460068C66826
:1022200005690027A907002913DAB10711D5F91E9E
:10223000016101202077206880698007204602D054
:10224000FFF7E8FF04E000F0EDF8204600F0C4F9E5
:102250002777680716D5700714D504202168C04376
:10226000086102202077206880698005800F204661
:1022700002D0FFF7CFFF04E000F0D4F8204600F0D2
:10228000ABF92777280715D5300713D50820216823
:10229000C0430861042020772068C0698007204679
:1022A00002D0FFF7B7FF04E000F0BCF8204600F0D2
:1022B00093F92777E80616D5F00614D51020216883
:1022C000C0430861082020772068C0698005800F1E
:1022D000204602D0FFF79EFF04E000F0A3F820465E
:1022E00000F07AF92777E80708D0F00706D0012038
:1022F0002168C0430861204600F0D4F9280601D4C3
:10230000A80407D5300605D5216813480861204682
:10231000FFF75BFEE80507D5300605D521680F48B5
:1023200008612046FFF750FE680608D5700606D5FE
:1023300040202168C0430861204600F0B4F9A80697
:1023400008D5B00606D520202168C0430861204684
:10235000FFF73CFEF8BD00007FDFFFFFFFFEFFFF41
:10236000F0B587B0044614216846FDF722FF01222C
:10237000216892070024284801270225274E914210
:102380002AD1416B39434163416B39400591416B1F
:1023900029434163406B052728400590D0133F0730
:1023A0000090029401956946049503943846FFF71E
:1023B000E1F8082000900294019569460495039481
:1023C0003046FFF7D7F80C2000900294019569463B
:1023D0000495039438461AE0114A914219D1416B91
:1023E00029434163406B02942840059030200090BF
:1023F00069460497019503943046FFF7BBF8032024
:102400000090029469460497019503943046FFF7C3
:10241000B1F807B0F0BD0000001002400004005009
:10242000000400407047F8B50446002026462036D8
:102430000090307F0D4601280CD00120082730770E
:102440000C2A48D008DC002A10D0042A1ED0082A02
:1024500006D130E00220F8BD102A52D0142A60D0F4
:1024600001200090002030770098F8BD206800F02F
:10247000F3FF206881693943816120688169042202
:1024800091438161206881692A6911E0206801F027
:1024900021F8206881690122D202114381612068FC
:1024A0008169521091438161206881692A69120211
:1024B00011438161D6E7206801F04AF82068C169BC
:1024C0003943C1612068C16904229143C161206818
:1024D000C1692A6912E0206801F078F82068C169B2
:1024E0000122D2021143C1612068C269012189021F
:1024F0008A43C2612068C1692A6912021143C1611D
:10250000B0E7206801F096F82068416D39434165D5
:102510002068426D04218A4342652068416D2A6922
:1025200012E0206801F0B4F82068416D0122D20267
:10253000114341652068426D012189028A43426549
:102540002068416D2A691202114341658AE770B51E
:10255000040005D025462035687F002802D006E01B
:10256000012070BD00202877204600F017F80220D7
:102570006877211D206800F003FF01224034227299
:10258000AA77EA7722706270A270E270227162719B
:10259000A271E2716A77002070BD000008B50122C7
:1025A000016892070A48914206D1C16B012211438A
:1025B000C163C06B104008E0064A914206D1C26B6D
:1025C00002210A43C263C06B0840009008BD0000AE
:1025D00000100240000400407047000010B504469F
:1025E0000223203000290ED0042911D0204640308B
:1025F000082912D00C2915D0102918D0C278012A28
:102600001AD0012010BD827F012AFAD1837714E00D
:10261000C27F012AF5D1C3770FE00278012AF0D1F9
:1026200003700AE04278012AEBD1437005E082781A
:10263000012AE6D1837000E0C3700122206800F017
:10264000E9FE13492068884205D0124A904202D020
:10265000114A904204D1426C0123DB031A434264C5
:1026600020680122884205D09107884202D00B4998
:10267000884207D181680A4B1940062905D0DB1F23
:10268000994202D0016811430160002010BD000092
:10269000002C01400044014000480140000400407B
:1026A000070001007047704710B5014680310A7974
:1026B000012A15D001220A7124228A600268136857
:1026C00014686408640014600122520793430022D6
:1026D000426600680360202088600A71104610BDC1
:1026E000022010BD10B504468030C068202801D0FB
:1026F000022010BD00290BD0002A09D00123A068B8
:102700001B03984206D12069002803D1C80701D0D5
:10271000012010BD0120E06600202067204601F066
:10272000D7FA010003D1E06E012802D0012108464A
:1027300010BD206810220262EFF31080012383F3A2
:10274000108823681C6814431C6080F31088EEE72F
:10275000034A10B5904202D10846FEF709F910BDB0
:10276000FC010020704770B504460546803420798E
:1027700001281AD0012020712420A0602868066852
:1027800002685208520002602868826807235B06CC
:102790009A430A438260284600F0D0FF286806600A
:1027A0002020A0600020207170BD022070BD70B597
:1027B0000446054680342079012819D00120207173
:1027C0002420A0602868066802685208520002604F
:1027D00028688268D200D2080A438260284600F046
:1027E000ADFF286806602020A0600020207170BD29
:1027F000022070BD7047704770470000F8B503684D
:102800000446D96918689A68B44D0E462E4025468C
:102810008035002E75D0B24EB24F16400740374378
:102820006ED0CF0706D0C70504D501271F622B69DC
:102830003B432B618B0708D5D30706D027680223BB
:102840003B622B6904273B432B614B0708D5D30719
:1028500006D0276804233B622B6902273B432B6188
:102860000B0709D520230340334305D026680823EE
:1028700033622E691E432E610B0509D5430107D52E
:1028800001232668DB0233622B69202633432B6148
:102890002B69002B42D089060AD520210840C905A2
:1028A0000A40104304D0616F002901D020468847B8
:1028B000286921688968490602D42821084232D053
:1028C000204601F0AFF821688868400627D5EFF36D
:1028D0001080012282F310888B68402293438B6022
:1028E00080F310882868002819D07F498163286800
:1028F000FEF7FCFC002811D02868816B0DE000E099
:1029000017E08E0615D5012720263F070640174001
:102910003E430ED0616FB5E020468847F8BD2046A3
:10292000FFF76AFFF8BD2046FFF766FF0020286129
:10293000F8BDE66E012E7DD1CE067BD5C60679D5D3
:1029400010221A62236898682646400640360028FE
:1029500049DA2968086840680004000CE8D0B78BA1
:102960008742E5D9F08308680068800634D4EFF325
:102970001080012181F3108819681701B94319608B
:1029800080F31088EFF31080012181F31088216813
:102990008B685B085B008B6080F31088EFF310801E
:1029A000012181F3108821688B684027BB438B602D
:1029B00080F310882020E8600020E066EFF31080AC
:1029C000012181F3108821680B6893430B6080F329
:1029D00010882868FEF750FC02202067B08BF18B2E
:1029E000401A81B235E0B08BF18B401A81B2F08B86
:1029F00000289DD000299BD0EFF31080012686F39C
:102A000010881E68FF272137BE431E6080F31088A0
:102A1000EFF31080012383F3108823689E68304F02
:102A2000FF433E409E6080F310882020E860002035
:102A3000E06600E011E06067EFF31080012383F3AC
:102A4000108823681D6895431D6080F3108802205C
:102A500020672046FFF77CFEF8BDCE0208D556025F
:102A600006D50120000518622046FFF7C4FEF8BD18
:102A70000E060BD501278026FF0506403A40164377
:102A800004D0A16F002900D046E7F8BD4A0614D54E
:102A9000420612D52046EFF31081012282F31088FE
:102AA0001A684024A2431A6081F310882021A9608B
:102AB0000021816700F0B4F8F8BD0A0205D5420094
:102AC00003D52046FFF796FEF8BDC901FCD50028C6
:102AD000FADA2046FFF746FEF8BD00000F080000B6
:102AE00001000010200100040539000870B5040041
:102AF00005D025468035A868002802D006E00120D0
:102B000070BD00202871204600F026F82420A8601F
:102B100020680168490849000160A06A002802D0C5
:102B2000204600F02DFE204600F0CCFF0128E7D023
:102B3000206841680922D20291434160206881687F
:102B40002A229143816020680168012211430160BB
:102B5000204600F07BFE70BD70B590B00646142193
:102B60000AA8FDF726FB28216846FDF722FB264927
:102B70003068884245D101200025009001956846C3
:102B8000FEF738FE002801D0FDF7BEFF1F4802689F
:102B9000012189030A430260006808400F901B4826
:102BA0004038426B02210A434263406B0AAA084044
:102BB0000F90C02023C20D950AA915480E95FEF767
:102BC000D9FC154C13482060A5603220E560606098
:102BD00065618020A561206120202562E06120469A
:102BE000FEF71EFC002801D0FDF78EFF80208451E7
:102BF000002211461B20A662FEF7D2FD1B20FEF725
:102C0000C3FD10B070BD000000380140401002400C
:102C100000040050080002409002002070477047F6
:102C20007047FEE78068C007C00F70478068C00724
:102C3000C00F704780684007C00F7047C06800052C
:102C4000800F01D0002070470120704702680723E1
:102C50009B059A430A430260704710B543690424F8
:102C6000214007248C40A3438A401343436110BD95
:102C70003EB500242A48009401942849029401603A
:102C800084600905C4604160042549124561016101
:102C900004764476847601462031C5610C70446226
:102CA00084620C730463446384630C77C464FEF72A
:102CB000F3F8002801D0FDF727FF012000900194D0
:102CC000694602941648FDF7D1FF002801D0FDF7B0
:102CD0001BFF14480090694601951148FDF7C6FF97
:102CE000002801D0FDF710FF0F4800900820019048
:102CF00069460B48FDF7BAFF002801D0FDF704FF35
:102D00000A4800900C20019069460548FDF7AEFF87
:102D1000002801D0FDF7F8FE3EBD00000024014070
:102D20005800002002000004400000188000001C31
:102D300008B50C48816B012211438163806B104000
:102D40000022009011460920FEF72AFD0920FEF717
:102D50001BFD002211460A20FEF722FD0A20FEF785
:102D600013FD08BD0010024008B50848416B012260
:102D700011434163416B11400091426B02210A43B0
:102D80004263406B0840009008BD00000010024004
:102D900010B588B000240594069418480394049450
:102DA000009401941449029401603F2184604160C1
:102DB0000461446112498461C160FFF73FF9002852
:102DC00001D0FDF7A1FE01200003039003A90B48E9
:102DD000FFF7B0F9002801D0FDF796FE00940194AA
:102DE000694606480294FFF7F3F8002801D0FDF782
:102DF0008BFE08B010BD0000002C0140180100201F
:102E0000FFF9000010B58AB00024079408941C2133
:102E100068460994FDF7CDF901212448890701602E
:102E20003F2184604160046121498461C160FFF7F2
:102E30008EFB002801D0FDF767FE079407A91B4809
:102E40000994FFF7C5F8002801D0FDF75DFE60206A
:102E50000090019402940022694604941348FFF7FD
:102E6000E2FA002801D0FDF74FFE042269460F4820
:102E7000FFF7D9FA002801D0FDF746FE082269467F
:102E80000A48FFF7D0FA002801D0FDF73DFE0C22DA
:102E900069460648FFF7C7FA002801D0FDF734FE5F
:102EA0000248FFF75DFA0AB010BD0000640100207F
:102EB0001F4E000010B58AB00024079408941C210E
:102EC00068460994FDF775F92448234901603F21BC
:102ED00084604160046122498461C160FFF737FB6F
:102EE000002801D0FDF710FE079407A91B4809949C
:102EF000FFF76EF8002801D0FDF706FE6020009075
:102F0000019402940022694604941448FFF78BFA56
:102F1000002801D0FDF7F8FD042269460F48FFF7AD
:102F200082FA002801D0FDF7EFFD082269460B4820
:102F3000FFF779FA002801D0FDF7E6FD0C2269467B
:102F40000648FFF770FA002801D0FDF7DDFD0348C1
:102F5000FFF706FA0AB010BD00040040B0010020DF
:102F60001F4E000010B5184816490160174941600E
:102F700000218160C16001618161C16101620C2237
:102F8000416242618162FFF7B1FD002801D0FDF787
:102F9000BBFD00210C48FFF70AFC002801D0FDF71B
:102FA000B3FD00210848FFF7DEFB002801D0FDF744
:102FB000ABFD0548FFF778FB002801D0FDF7A4FD25
:102FC00010BD000000380140FC010020A068060090
:102FD000F8B52B4C0620205EFDF7D6F90546A088F3
:102FE000FDF7DDF9014620462A46503000F04FF843
:102FF000FDF7F0F9234D2860A0812620205EFDF723
:10300000C3F90646A08CFDF7CAF9014620463246B0
:10301000983000F03CF80127FF077840FDF7DAF917
:103020006860A0851620205EFDF7AEF90646A08AEE
:10303000FDF7B5F9014620463246E03000F027F8AA
:10304000FDF7C8F9A860A0833620205EFDF79CF943
:103050000646A08EFDF7A3F9014632460A4800F065
:1030600016F87840FDF7B6F903B2E860A387A888A0
:1030700002B2288901B2288800B200F0B1F8F8BD88
:10308000EC0200203C00002014040020FEE7FEB506
:10309000040014D0206C60640290E06B2064009007
:1030A000A2611046E161FDF7E0F80646E063207892
:1030B0000125ED07002804D0012838D035E0002094
:1030C000FEBD31466068FDF7D8F860623146A06801
:1030D000FDF7D3F8A16AFDF777F80746A062606BA9
:1030E000A063206B606330460099FDF7BEF8206353
:1030F000E26801461046FDF7C0F8E06238466169B3
:10310000FDF79EF9606906D36840A16AFDF798F95A
:1031100002D260696840A062A16A606AFDF754F853
:10312000E16A31E0206968402062206AFEBD3046D5
:103130000099FDF79AF86168FDF79FF860620190C9
:103140003146A068FDF799F80746A062606BA0635E
:10315000206B606301210098FDF70AF93146FDF705
:1031600088F80299FDF730F82063E26801461046BE
:10317000FDF783F80646E06239460198FDF724F82A
:103180003146FDF721F8216AFDF71EF8206221691A
:10319000FDF756F92069C7D36840216AFDF750F959
:1031A000C3D2BFE710B5029C002816D0002A14D065
:1031B0000170116841605168816091680C301AC0DB
:1031C00000210162C1618161C16281624162C160AD
:1031D0000161416181600160416010BD70477047CD
:1031E000F8B51D4616460F46044600F060FE002C5A
:1031F00001DD012100E00021494289B202460A4076
:103200000124A407A26388436063384600F04FFEA0
:10321000002F01DD012100E00021494289B2024670
:10322000134B0A401A608843E063304600F03FFECB
:10323000002E01DD012100E00021494289B2024651
:103240000C4C0A40A26388436063284600F02FFEBE
:10325000002D01DD012100E00021494289B2024632
:10326000044B0A4040331A608843E063F8BD000015
:10327000400000400004004010B5042218491948DD
:10328000FDF764FF1649891E8C1C0870002804D0C5
:1032900000202080A0806080E080134841790129CF
:1032A000FCD11048FDF7ACFF20881049114A081ADC
:1032B00001050F48090D8180A188511A0905090DE2
:1032C00081840A4A6188C43A511A0905090D81822C
:1032D000084AE188121D511A0905090D818610BDA1
:1032E0004E00002058000020DC000020ED280000E7
:1032F000EC020020212B000010B5FEF7EFF910BD05
:1033000030B593B038216846FCF753FF0025012003
:103310000E950F95109540021195FEF745FA02247F
:10332000E001039000944020059008200A9080035B
:103330000B900320079440060C90089420070495F6
:103340000D9009956846FEF733FC002801D072B64F
:10335000FEE707200EA931C102210EA81195FEF744
:1033600021FB002801D072B6FEE713B030BD7047D4
:1033700010B50248FEF750FF10BD000018010020F4
:10338000F0B502681E4B0124A4071E4D984203D0DD
:10339000A04201D0A84203D17026B2434E68324306
:1033A000194E1A4F98420AD0A04208D0A84206D01F
:1033B000174CA04203D0B04201D0B84204D103243C
:1033C0002402A243CC6822438024A2434C692243B6
:1033D00002608A68C2620A688262984203D0B04280
:1033E00001D0B84201D1096901630121416101693C
:1033F000C90703D00169490849000161F0BD000017
:10340000002C0140000400400044014000480140FD
:103410000020004010B5CB06DB0E0121046A994064
:103420008C430462016A9A401143016210BD30B5B9
:103430008468FF252D021B021343AC430B43234337
:10344000836030BD8268034B1A400A4307210A4358
:10345000826070478FFFCFFFF0B5056A026A52089D
:103460005200026243688269164C184E224092084C
:103470000C6892001443022295438A682A43124D35
:10348000A84204D0B04202D0114FB84206D108275A
:10349000BA43CF681743042297433A46A84204D060
:1034A000B04202D00A4DA84206D103252D02AB43FB
:1034B0004D691D438B692B434360846149684163B7
:1034C0000262F0BD8FFFFEFF002C0140004401406E
:1034D0000048014070B5046A026A10239A430262F0
:1034E00043688269164D2A4003252D02AA430D68C0
:1034F0002D021543202294438A6812012243114C65
:10350000A04207D18024A243CC6840262401224354
:10351000B24305E00C4CA04202D00C4CA04208D1B2
:103520000324A402A3434C69A4001C438B699B00A1
:1035300023434360856149688163026270BD000076
:10354000FF8FFFFE002C0140004401400048014075
:1035500070B5046A026AFF2301339A43026243682A
:10356000C269164D2A4092080D6892001543012247
:10357000520294438A6812022243114CA04208D19D
:103580001446CA68C614B443120222430415A24367
:1035900005E00C4CA04202D00B4CA04208D1032401
:1035A0002403A3434C6924011C438B691B0123435F
:1035B0004360C5614968C163026270BD8FFFFEFF51
:1035C000002C0140004401400048014030B5046A2D
:1035D000026A01231B039A4302624368C269114DC8
:1035E0002A4003252D02AA430D682D02154301220E
:1035F000520394438A68120322430B4CA04205D025
:103600000A4CA04202D00A4CA04205D10124A403D6
:10361000A3434C69A40123434360C5614968016425
:10362000026230BDFF8FFFFE002C014000440140CC
:103630000048014070B5036A026A01263604B243AD
:1036400002624268456D0E4C25400C682C437500A3
:10365000AB430D892D041D430A4B984205D00A4BFC
:10366000984202D0094B984203D14B69B2431B02E6
:103670001A434260446549688165056270BD000077
:103680008FFFFEFF002C0140004401400048014034
:1036900070B5046A026A01231B059A4302624268FC
:1036A000436D104D2B400D682D021D4301235B051A
:1036B0009C430B891E050C4B2643984205D00B4BAF
:1036C000984202D00A4B984206D101241346A40422
:1036D0004A69A34392021A43426045654968C1653D
:1036E000066270BDFF8FFFFE002C014000440140C8
:1036F0000048014030B5036A046A6408640004624B
:103700008469F025AC43120122430A24A3430B43EE
:103710008261036230BD30B5046A036A1025AB4391
:10372000036283690F252D031203AB431A43A023C1
:103730009C43090121438261016230BDF8B5044612
:10374000416E4034002915D0006881688068090105
:103750004D0F0A4E400F3746315C083F385CC000C1
:10376000FCF7C6FC6085785D715DC000FCF7C0FCAD
:103770002085F8BD01206085FAE70000DE470008DB
:1037800010B5018D090707D501684A680123DB03DD
:103790009A43836B1A434A60018DC90707D00168B9
:1037A0004A6801235B049A43C36A1A434A60018D45
:1037B000890707D501684A6801231B049A43036BF4
:1037C0001A434A60018D490707D501684A680123F9
:1037D0009B049A43436B1A434A60018DC90607D57F
:1037E0000268916801231B039943C36B19439160DD
:1037F000018D890607D501688A6801235B039A4316
:10380000036C1A438A60018D490612D503685A6811
:1038100001210905446C8A4322435A60426C8A4262
:1038200007D10268516803235B059943836C1943F0
:103830005160018D090607D501684A680123DB0440
:10384000C06C9A4302434A6010BD0000FEB50546B5
:103850000026803504462E61FDF73AFF019020686E
:10386000006820270007002817DA2548009000226A
:1038700039042046019B00F081FA00280DD0EFF3B7
:103880001080012181F3108821680A6880239A43FF
:103890000A6080F31088AF6028E020680068400765
:1038A00027D5174800900121002289052046019B59
:1038B00000F064FA00281CD0EFF31080012181F39E
:1038C000108821680A68FF2321339A430A6080F335
:1038D0001088EFF31080012181F3108821688A6835
:1038E000520852008A6080F31088EF602E71032026
:1038F000FEBDAF60EF60E66626672E710020FEBD5C
:10390000FFFFFF0110B5806A002201464031CA83E3
:10391000CA82FEF771FF10BDF8B5846A2046803078
:1039200081680546C6682068806800270006002870
:1039300006DA212904D156200753204600F0A4F8C6
:1039400020688068400606D5222E04D15E200753E9
:10395000204600F067F828691021084328612046B6
:10396000FEF74AFFF8BD70B501460968806A09682C
:1039700000228906002938DB5E210A52EFF310810C
:10398000012383F3108803681C68FF250135AC43CD
:103990001C6081F31088EFF31081012383F31088FA
:1039A00003689C68640864009C6081F31088EFF3EE
:1039B0001081012383F3108803689C684025AC4381
:1039C0009C6081F3108820238C210B50C16E01294B
:1039D0000BD1EFF31081012383F3108803681C6877
:1039E0001025AC431C6081F310880267C16E012969
:1039F00002D0FFF713F970BD5C21095AFEF7A8FE4B
:103A000070BD10B5806A01210167C16E012902D025
:103A1000FFF705F910BD5C21095A4908FEF798FE29
:103A200010BD000010B5EFF31081012282F3108861
:103A300002681368FF242134A343136081F31088C4
:103A4000EFF31081012282F31088026893680D4C15
:103A50002340936081F31088C16E01290BD1EFF3ED
:103A60001081012282F31088026813681024A34396
:103A7000136081F3108820228C210A500021C16636
:103A8000416710BDFEFFFFEF10B5EFF3108101227B
:103A900082F3108802681368C024A343136081F383
:103AA0001088EFF31081012282F310880268936876
:103AB0000124E405A343936081F310882021803022
:103AC000816010BDF8B50446016880682369E56926
:103AD0001843636900262B431843734A0B68734DE0
:103AE0002B4003430B602068416803231B03994369
:103AF000E368194341602168A069914201D0236ABB
:103B000018438B686A4D2B4003438B602068C16A61
:103B1000636A090909011943C16266492368664855
:103B20008B420AD140698007800F09D001282CD030
:103B3000022828D0032816D113E060498B4201D116
:103B4000002111E093420ED141690320800201401F
:103B50000AD001208002091A17D0091A13D0814215
:103B600001D1082100E010210120554D554FC0031F
:103B700093423DD100290AD0022911D0042909D04D
:103B8000082934D10BE00221EEE70421ECE7FDF730
:103B9000B5FF01E0FDF7C6FF050001D179E005465C
:103BA000606A4000395A28460091FCF7A1FA67681C
:103BB00079007918814267D83903814264D30023A0
:103BC00028461946009AFCF7BDFA020E09020302C4
:103BD000780811431818002251413A460023FCF797
:103BE000B1FA03210902384A411A91424FD94BE0F8
:103BF000E269824227D1002906D0022907D0042990
:103C000007D0082940D108E0FDF778FF03E02846F7
:103C100003E0FDF787FF00283BD0616A4900795A2D
:103C2000FCF766FA616840004A088018FCF760FA01
:103C30000146264A1039914226D8511C01400007FE
:103C4000400F084323E0002906D0022907D00429A9
:103C500007D0082918D108E0FDF750FF03E02846F7
:103C600003E0FDF75FFF002813D0616A4900795A2D
:103C7000FCF73EFA61684A088018FCF739FA0146F9
:103C8000124A1039914201D9012602E080B221681E
:103C9000C8602046012140304185018500206067D1
:103CA000A0673046F8BD000000800040F369FFCFF8
:103CB000FFF4FF1100380140401002400044004072
:103CC0000024F400BE470008FFFC0F00EFFF0000D7
:103CD00070B50446816540308283002025468035DA
:103CE00028612221E9602968002919D0204BCB6284
:103CF0002B68204919632B681F49596329681346AB
:103D00008863A66D2168324624312868FDF7DAFB06
:103D1000002805D0102028612020E860012070BD17
:103D2000206900280CD0EFF31080012181F3108866
:103D300021680A68FF2301331A430A6080F3108860
:103D4000EFF31080012181F31088226893680B4300
:103D5000936080F31088EFF3108081F3108821685E
:103D60008A6840231A438A6080F31088002070BD5F
:103D700067390008033A000819390008FFB581B017
:103D800005460E46044680350A9F32E0781C30D046
:103D9000FDF79EFC0499401AB84218D8002F16D09F
:103DA00020680168490724D5802E22D0402E20D0DB
:103DB000C169C94309070CD4082606622046FFF7EB
:103DC00031FE2E6100202871012005B0F0BD0320D6
:103DD000FBE7C069C04300050BD401202168C00285
:103DE00008622046FFF71EFE20202861002028716F
:103DF000EDE72068C1693046884305D0002103986B
:103E00008142C3D00020E0E70121F8E710B5024865
:103E1000FEF7F4FC10BD0000FC0100202021020C84
:103E200001D010211046020A01D0104608390209BB
:103E300001D01046091F820801D01046891E420891
:103E400001D0881E7047081A704700008307FF22C0
:103E5000DB0E9A408907090E9940002808DB830889
:103E600009489B001B181868904308431860704766
:103E70000007000F0838830804489B001B18D86906
:103E800090430843D861704700E400E000ED00E093
:103E900002E008C8121F08C1002AFAD17047704713
:103EA000002001E001C1121F002AFBD17047C1139D
:103EB0004840401A80B2704710B51C46029B8A42A7
:103EC00001D8204610BD884201D2084602E0904247
:103ED00000D91046401A1B1B5843511AFCF71EF913
:103EE000001900B210BDF8B50546079E06981C469D
:103EF0008A4213D98C4211D994420FD28319DF0F11
:103F0000FB185B101BB2A54203D200930346224666
:103F100001E0214600962846FFF7CEFFF8BD0000DD
:103F20008EB0FDF7E3FBFFF7EBF9FEF71DFFFEF7A1
:103F3000FFFEFFF717F8FEF765FFFEF7BBFFFEF782
:103F400027FFFEF795FEF948FCF7E0FDF848FEF77D
:103F5000C9F80021F648FEF741FB0421F448FEF7BA
:103F60003DFB0821F248FEF739FB0C21F048FEF733
:103F700035FBF048FEF7B6F80021EE48FEF72EFBC1
:103F80000421EC48FEF72AFB0821EA48FEF726FB4D
:103F90000C21E848FEF722FB7D20C000FDF7D8FA8F
:103FA000FEF7E0FFFCF7D0FCFCF73EFCFDF790FBD2
:103FB000E24DE14C2F462037E060FFF75DF9FDF759
:103FC00087FB0646F87A012802D000F0D7FBD2E141
:103FD000B87B0028387B04D000287DD001287CD015
:103FE0003FE3022812D0012878D0A069301A0A28AD
:103FF00075D3D34A0421515E0120800281426FDAD9
:10400000431A462B00DD46235918C3E1CE49CD485B
:104010004860CE49D04A4860CD494860CD494860A3
:104020000A20E98C38560818A188411809B20A916B
:10403000E188411809B209912189411809B20C910E
:104040006189401800B20B90298C501A00B289186F
:1040500004900590688C0EB2C1B2A1702D2041432E
:10406000BE4A48088018FCF743F80190002801D1A7
:1040700001200190FDF72CFB2169401A45D42078DE
:10408000B7494000085E00900146049800F08AFBA2
:104090000A99081AAA49C8803046009900F082FBA4
:1040A00001460C98401AA649C8823046009900F093
:1040B00079FB0999081AA249C8840099059800F06B
:1040C00071FB0B99081A9E49C88621690198081846
:1040D00020610120205604E048E27BE21AE095E1ED
:1040E00051E10028207809DD401CC0B2207008286A
:1040F0000BD3082020700020C04305E0411E217032
:1041000003D20020207001206070FFF7B5F8FEF7A1
:104110005FFF52E70A21E88C79564018A1884218BF
:10412000298C521A13B2E2888A18821812B20192AC
:1041300022898A18821812B2029262898018401A63
:1041400000B203906069301A052850D37C4A0420DD
:10415000105E984205DA191A462900DD4621081832
:1041600006E0984205DDC11A462900DD4621401AC5
:1041700000B2D0801420105E0299884205DA091A34
:10418000462900DD4621081806E0884205DD411A6F
:10419000462900DD4621401A00B2D0822420105E5C
:1041A0000199884205DA091A462900DD46210818D6
:1041B00006E0884205DD411A462900DD4621401A05
:1041C00000B2D0843420105E0399884205DA091ABF
:1041D000462900DD4621081806E0884205DD411A1F
:1041E000462900DD4621401A00B2D0866661544857
:1041F0008088181AFCF7DAF849004908FCF703F937
:1042000006464F48818C0198401AFCF7CFF84900C8
:104210004908FCF7F8F801904948818A0298401A49
:10422000FCF7C4F849004908FCF7EDF8029044484F
:10423000818E0398401AFCF7B9F849004908FCF749
:10424000E2F8484903908E426FDD019888426CDDA8
:104250000121C90588420BDB01463046FCF74AF8CC
:10426000414B984207DC414A904204DA104605E08F
:104270007F20C00502E0984200DD18460321FCF7CC
:1042800077F8314948600120C00586420BDB314692
:104290000198FCF72FF83449884207DC334A9042F2
:1042A00004DA104605E07F20C00502E0884200DD08
:1042B00008460321FCF75CF824490126486003986E
:1042C000F605B0420BDB01460298FCF713F8264ACC
:1042D000904207DC254B984204DA184605E07F201F
:1042E000C00502E0904200DD10460321FCF740F8D3
:1042F000174948600298B0420BDB01460398FBF770
:10430000F9FF1949884207DC184A904204DA10463E
:1043100005E07F20C00502E0884200DD0846032159
:10432000FCF726F80B49486013E121E05800002013
:1043300064010020B0010020000000208004002063
:10434000EC0200200000A0413C0300208403002078
:10435000CC03002014040020B603000088130000E2
:10436000AC470008000048430000A040CDCCCC3D45
:1043700041200006F3E00020207001206070FDF76E
:10438000A7F9206119E6814205DD0B1A462B00DDF5
:104390004623C91A09B2D1801421515E814205DA3F
:1043A000431A462B00DD4623591806E0814205DDFD
:1043B0000B1A462B00DD4623C91A09B2D1822421EB
:1043C000515E814205DA431A462B00DD4623591817
:1043D00006E0814205DD0B1A462B00DD4623C91A93
:1043E00009B2D1843421515E814205DA401A46284F
:1043F00000DD4620401806E0814205DD081A462807
:1044000000DD4620081A01B2D186A661D2480126F5
:104410008088B602301AFBF7C9FF49004908FBF74C
:10442000F2FF0390CC48808C301AFBF7BFFF4900A5
:104430004908FBF7E8FF0190C748808A301AFBF76C
:10444000B5FF49004908FBF7DEFF0090C248808EA7
:10445000301AFBF7ABFF49004908FBF7D4FF029085
:10446000BE490398884279DD0198884276DD00983C
:10447000884273DD0298884270DD01987603B0426D
:1044800004DB01460398FBF735FF01E07F20C00500
:10449000049001990398FBF72DFFB149FBF7EDFE5E
:1044A0000646B048466000990298FBF723FFAC49E6
:1044B000FBF7E3FEAC494860069003990198FBF7CF
:1044C00019FFA749FBF7D9FEA84948600190029956
:1044D0000098FBF70FFFA249FBF7CFFEA449486005
:1044E0000146A448864203DC3F221206964204DBC2
:1044F000864201DD024600E032469A4B81425A6014
:104500009B4B03DC3F221206914204DB814201DD1A
:10451000024600E00A465A600199944A814204DC4E
:104520000B463F2109068B4203DB0199814200DDE6
:104530000146516006998C4A814206DC3F231B06E6
:10454000994202DA184603E008E0814200DC08469E
:104550005060FEF791FEFEF73BFD0CE78048814975
:1045600048608249486082494860DBE67D4982486C
:1045700048607E494860E06901218902301A0F28AD
:1045800068D3754A0420105E884205DA0B1A462B60
:1045900000DD4623181806E0884205DD431A462B45
:1045A00000DD4623C01A00B2D0802420105E88426D
:1045B00005DA091A462900DD4621081806E0884276
:1045C00005DD411A462900DD4621401A00B2D0849B
:1045D000E6613FE0634968484860644948600A20F2
:1045E000E98C38562A8C0918A0885300D21808186C
:1045F000E388801AD21889180AB2216A00B2711AA7
:10460000052927D3544B0421595E814205DA401A0B
:10461000462800DD4620401806E0814205DD081AE4
:10462000462800DD4620081A01B2D9802420185EF1
:10463000904205DA111A462900DD4621081806E0E5
:10464000904205DD811A462900DD4621401A00B25C
:10465000D88426620020207001206070FDF738F8B1
:104660002061787B002825D0012800D04DE5404905
:10467000414848603C4948600A21E88C7956638982
:104680004218298C48000918208908181018D218D7
:10469000511A0AB2A16A00B2711A0529E6D32E4B4B
:1046A0001421595E814239DA401A462800DD46203D
:1046B00040183AE02E49304848602B494860606A0B
:1046C00001218902301A0F28D0D3234A1420105E0A
:1046D000884205DA0B1A462B00DD4623181806E03F
:1046E000884205DD431A462B00DD4623C01A00B27E
:1046F000D0823420105E884205DA091A462900DD8E
:104700004621081806E0884205DD411A462900DDE9
:104710004621401A00B2D0866662F6E4814205DD89
:10472000081A462800DD4620081A01B2D982342032
:10473000185E904205DA111A462900DD4621081854
:1047400006E0904205DD811A462900DD4621401A27
:1047500000B2D886A662D8E4EC02002000004843EC
:104760000000A0403C03002014040020840300202B
:10477000CC0300200000C8410000104100200121AE
:10478000890748638863C86304490860044948632B
:104790008863C863024940310860704740000040A8
:1047A000000400404843C01300B2704740782D62B7
:1047B0000040C72B000039D400C0D39DC087010042
:1047C00002000400060008000A000C00100020008F
:1047D00040008000000101010103070100000804FE
:1047E00002040801010100000000000000000000B8
:1047F00000000000000000000000000000000000B9
:1048000000000000000000000100000002000000A5
:104810000300000004000000060000000700000084
:104820000800000009000000000000000000000077
:104830000000000000000000010000000200000075
:104840000300000004000000000090410000000090
:10485000000000007448000800000020580000001C
:10486000903E0008CC48000858000020680800006E
:10487000A03E00080D010000B6086C0702080208FF
:104880000000000000000000000000000000000028
:104890000000000000000000000000000000000018
:1048A0000100000004000000000000000024F400EB
:1048B00000000000000000000000000000000000F8
:0C48C000000000000000000000000000EC
:04000005080000C12E
:00000001FF
